{
  "_format": "hh-sol-artifact-1",
  "contractName": "TerraTrustToken",
  "sourceName": "contracts/TerraToken.sol",
  "abi": [
    {
      "inputs": [],
      "stateMutability": "nonpayable",
      "type": "constructor"
    },
    {
      "inputs": [
        {
          "internalType": "address",
          "name": "sender",
          "type": "address"
        },
        {
          "internalType": "uint256",
          "name": "balance",
          "type": "uint256"
        },
        {
          "internalType": "uint256",
          "name": "needed",
          "type": "uint256"
        },
        {
          "internalType": "uint256",
          "name": "tokenId",
          "type": "uint256"
        }
      ],
      "name": "ERC1155InsufficientBalance",
      "type": "error"
    },
    {
      "inputs": [
        {
          "internalType": "address",
          "name": "approver",
          "type": "address"
        }
      ],
      "name": "ERC1155InvalidApprover",
      "type": "error"
    },
    {
      "inputs": [
        {
          "internalType": "uint256",
          "name": "idsLength",
          "type": "uint256"
        },
        {
          "internalType": "uint256",
          "name": "valuesLength",
          "type": "uint256"
        }
      ],
      "name": "ERC1155InvalidArrayLength",
      "type": "error"
    },
    {
      "inputs": [
        {
          "internalType": "address",
          "name": "operator",
          "type": "address"
        }
      ],
      "name": "ERC1155InvalidOperator",
      "type": "error"
    },
    {
      "inputs": [
        {
          "internalType": "address",
          "name": "receiver",
          "type": "address"
        }
      ],
      "name": "ERC1155InvalidReceiver",
      "type": "error"
    },
    {
      "inputs": [
        {
          "internalType": "address",
          "name": "sender",
          "type": "address"
        }
      ],
      "name": "ERC1155InvalidSender",
      "type": "error"
    },
    {
      "inputs": [
        {
          "internalType": "address",
          "name": "operator",
          "type": "address"
        },
        {
          "internalType": "address",
          "name": "owner",
          "type": "address"
        }
      ],
      "name": "ERC1155MissingApprovalForAll",
      "type": "error"
    },
    {
      "inputs": [
        {
          "internalType": "address",
          "name": "owner",
          "type": "address"
        }
      ],
      "name": "OwnableInvalidOwner",
      "type": "error"
    },
    {
      "inputs": [
        {
          "internalType": "address",
          "name": "account",
          "type": "address"
        }
      ],
      "name": "OwnableUnauthorizedAccount",
      "type": "error"
    },
    {
      "anonymous": false,
      "inputs": [
        {
          "indexed": true,
          "internalType": "address",
          "name": "account",
          "type": "address"
        },
        {
          "indexed": true,
          "internalType": "address",
          "name": "operator",
          "type": "address"
        },
        {
          "indexed": false,
          "internalType": "bool",
          "name": "approved",
          "type": "bool"
        }
      ],
      "name": "ApprovalForAll",
      "type": "event"
    },
    {
      "anonymous": false,
      "inputs": [
        {
          "indexed": true,
          "internalType": "address",
          "name": "retiredBy",
          "type": "address"
        },
        {
          "indexed": false,
          "internalType": "uint256",
          "name": "amount",
          "type": "uint256"
        },
        {
          "indexed": false,
          "internalType": "string",
          "name": "retirementReason",
          "type": "string"
        },
        {
          "indexed": false,
          "internalType": "uint256",
          "name": "timestamp",
          "type": "uint256"
        }
      ],
      "name": "CreditRetired",
      "type": "event"
    },
    {
      "anonymous": false,
      "inputs": [
        {
          "indexed": true,
          "internalType": "address",
          "name": "previousOwner",
          "type": "address"
        },
        {
          "indexed": true,
          "internalType": "address",
          "name": "newOwner",
          "type": "address"
        }
      ],
      "name": "OwnershipTransferred",
      "type": "event"
    },
    {
      "anonymous": false,
      "inputs": [
        {
          "indexed": true,
          "internalType": "address",
          "name": "operator",
          "type": "address"
        },
        {
          "indexed": true,
          "internalType": "address",
          "name": "from",
          "type": "address"
        },
        {
          "indexed": true,
          "internalType": "address",
          "name": "to",
          "type": "address"
        },
        {
          "indexed": false,
          "internalType": "uint256[]",
          "name": "ids",
          "type": "uint256[]"
        },
        {
          "indexed": false,
          "internalType": "uint256[]",
          "name": "values",
          "type": "uint256[]"
        }
      ],
      "name": "TransferBatch",
      "type": "event"
    },
    {
      "anonymous": false,
      "inputs": [
        {
          "indexed": true,
          "internalType": "address",
          "name": "operator",
          "type": "address"
        },
        {
          "indexed": true,
          "internalType": "address",
          "name": "from",
          "type": "address"
        },
        {
          "indexed": true,
          "internalType": "address",
          "name": "to",
          "type": "address"
        },
        {
          "indexed": false,
          "internalType": "uint256",
          "name": "id",
          "type": "uint256"
        },
        {
          "indexed": false,
          "internalType": "uint256",
          "name": "value",
          "type": "uint256"
        }
      ],
      "name": "TransferSingle",
      "type": "event"
    },
    {
      "anonymous": false,
      "inputs": [
        {
          "indexed": false,
          "internalType": "string",
          "name": "value",
          "type": "string"
        },
        {
          "indexed": true,
          "internalType": "uint256",
          "name": "id",
          "type": "uint256"
        }
      ],
      "name": "URI",
      "type": "event"
    },
    {
      "inputs": [],
      "name": "CARBON_CREDIT",
      "outputs": [
        {
          "internalType": "uint256",
          "name": "",
          "type": "uint256"
        }
      ],
      "stateMutability": "view",
      "type": "function"
    },
    {
      "inputs": [
        {
          "internalType": "uint256",
          "name": "",
          "type": "uint256"
        }
      ],
      "name": "auditEvidence",
      "outputs": [
        {
          "internalType": "string",
          "name": "",
          "type": "string"
        }
      ],
      "stateMutability": "view",
      "type": "function"
    },
    {
      "inputs": [
        {
          "internalType": "bytes32",
          "name": "",
          "type": "bytes32"
        }
      ],
      "name": "auditMinted",
      "outputs": [
        {
          "internalType": "bool",
          "name": "",
          "type": "bool"
        }
      ],
      "stateMutability": "view",
      "type": "function"
    },
    {
      "inputs": [
        {
          "internalType": "address",
          "name": "account",
          "type": "address"
        },
        {
          "internalType": "uint256",
          "name": "id",
          "type": "uint256"
        }
      ],
      "name": "balanceOf",
      "outputs": [
        {
          "internalType": "uint256",
          "name": "",
          "type": "uint256"
        }
      ],
      "stateMutability": "view",
      "type": "function"
    },
    {
      "inputs": [
        {
          "internalType": "address[]",
          "name": "accounts",
          "type": "address[]"
        },
        {
          "internalType": "uint256[]",
          "name": "ids",
          "type": "uint256[]"
        }
      ],
      "name": "balanceOfBatch",
      "outputs": [
        {
          "internalType": "uint256[]",
          "name": "",
          "type": "uint256[]"
        }
      ],
      "stateMutability": "view",
      "type": "function"
    },
    {
      "inputs": [
        {
          "internalType": "uint256",
          "name": "auditId",
          "type": "uint256"
        }
      ],
      "name": "getAuditEvidence",
      "outputs": [
        {
          "internalType": "string",
          "name": "",
          "type": "string"
        }
      ],
      "stateMutability": "view",
      "type": "function"
    },
    {
      "inputs": [
        {
          "internalType": "address",
          "name": "account",
          "type": "address"
        },
        {
          "internalType": "address",
          "name": "operator",
          "type": "address"
        }
      ],
      "name": "isApprovedForAll",
      "outputs": [
        {
          "internalType": "bool",
          "name": "",
          "type": "bool"
        }
      ],
      "stateMutability": "view",
      "type": "function"
    },
    {
      "inputs": [
        {
          "internalType": "address",
          "name": "farmer",
          "type": "address"
        },
        {
          "internalType": "uint256",
          "name": "auditId",
          "type": "uint256"
        },
        {
          "internalType": "uint256",
          "name": "creditAmount",
          "type": "uint256"
        },
        {
          "internalType": "string",
          "name": "ipfsHash",
          "type": "string"
        },
        {
          "internalType": "string",
          "name": "landId",
          "type": "string"
        },
        {
          "internalType": "uint256",
          "name": "auditYear",
          "type": "uint256"
        }
      ],
      "name": "mintAudit",
      "outputs": [],
      "stateMutability": "nonpayable",
      "type": "function"
    },
    {
      "inputs": [],
      "name": "owner",
      "outputs": [
        {
          "internalType": "address",
          "name": "",
          "type": "address"
        }
      ],
      "stateMutability": "view",
      "type": "function"
    },
    {
      "inputs": [],
      "name": "renounceOwnership",
      "outputs": [],
      "stateMutability": "nonpayable",
      "type": "function"
    },
    {
      "inputs": [
        {
          "internalType": "uint256",
          "name": "amount",
          "type": "uint256"
        },
        {
          "internalType": "string",
          "name": "reason",
          "type": "string"
        }
      ],
      "name": "retireCredits",
      "outputs": [],
      "stateMutability": "nonpayable",
      "type": "function"
    },
    {
      "inputs": [
        {
          "internalType": "address",
          "name": "",
          "type": "address"
        }
      ],
      "name": "retiredCredits",
      "outputs": [
        {
          "internalType": "uint256",
          "name": "",
          "type": "uint256"
        }
      ],
      "stateMutability": "view",
      "type": "function"
    },
    {
      "inputs": [
        {
          "internalType": "address",
          "name": "from",
          "type": "address"
        },
        {
          "internalType": "address",
          "name": "to",
          "type": "address"
        },
        {
          "internalType": "uint256[]",
          "name": "ids",
          "type": "uint256[]"
        },
        {
          "internalType": "uint256[]",
          "name": "values",
          "type": "uint256[]"
        },
        {
          "internalType": "bytes",
          "name": "data",
          "type": "bytes"
        }
      ],
      "name": "safeBatchTransferFrom",
      "outputs": [],
      "stateMutability": "nonpayable",
      "type": "function"
    },
    {
      "inputs": [
        {
          "internalType": "address",
          "name": "from",
          "type": "address"
        },
        {
          "internalType": "address",
          "name": "to",
          "type": "address"
        },
        {
          "internalType": "uint256",
          "name": "id",
          "type": "uint256"
        },
        {
          "internalType": "uint256",
          "name": "value",
          "type": "uint256"
        },
        {
          "internalType": "bytes",
          "name": "data",
          "type": "bytes"
        }
      ],
      "name": "safeTransferFrom",
      "outputs": [],
      "stateMutability": "nonpayable",
      "type": "function"
    },
    {
      "inputs": [
        {
          "internalType": "address",
          "name": "operator",
          "type": "address"
        },
        {
          "internalType": "bool",
          "name": "approved",
          "type": "bool"
        }
      ],
      "name": "setApprovalForAll",
      "outputs": [],
      "stateMutability": "nonpayable",
      "type": "function"
    },
    {
      "inputs": [
        {
          "internalType": "bytes4",
          "name": "interfaceId",
          "type": "bytes4"
        }
      ],
      "name": "supportsInterface",
      "outputs": [
        {
          "internalType": "bool",
          "name": "",
          "type": "bool"
        }
      ],
      "stateMutability": "view",
      "type": "function"
    },
    {
      "inputs": [
        {
          "internalType": "address",
          "name": "newOwner",
          "type": "address"
        }
      ],
      "name": "transferOwnership",
      "outputs": [],
      "stateMutability": "nonpayable",
      "type": "function"
    },
    {
      "inputs": [
        {
          "internalType": "uint256",
          "name": "",
          "type": "uint256"
        }
      ],
      "name": "uri",
      "outputs": [
        {
          "internalType": "string",
          "name": "",
          "type": "string"
        }
      ],
      "stateMutability": "view",
      "type": "function"
    }
  ],
  "bytecode": "0x608060405234801561000f575f5ffd5b5060408051602081019091525f8152339061002981610066565b506001600160a01b03811661005757604051631e4fbdf760e01b81525f600482015260240160405180910390fd5b61006081610076565b50610219565b6002610072828261015f565b5050565b600380546001600160a01b038381166001600160a01b0319831681179093556040519116919082907f8be0079c531659141344cd1fd0a4f28419497f9722a3daafe3b4186f6b6457e0905f90a35050565b634e487b7160e01b5f52604160045260245ffd5b600181811c908216806100ef57607f821691505b60208210810361010d57634e487b7160e01b5f52602260045260245ffd5b50919050565b601f82111561015a57805f5260205f20601f840160051c810160208510156101385750805b601f840160051c820191505b81811015610157575f8155600101610144565b50505b505050565b81516001600160401b03811115610178576101786100c7565b61018c8161018684546100db565b84610113565b6020601f8211600181146101be575f83156101a75750848201515b5f19600385901b1c1916600184901b178455610157565b5f84815260208120601f198516915b828110156101ed57878501518255602094850194600190920191016101cd565b508482101561020a57868401515f19600387901b60f8161c191681555b50505050600190811b01905550565b611855806102265f395ff3fe608060405234801561000f575f5ffd5b5060043610610110575f3560e01c80636917e6c11161009e578063936dbe021161006e578063936dbe0214610257578063a22cb4651461026a578063e985e9c51461027d578063f242432a146102b8578063f2fde38b146102cb575f5ffd5b80636917e6c1146101ff578063715018a61461022157806389b9ac7f146102295780638da5cb5b1461023c575f5ffd5b806318c11f9f116100e457806318c11f9f146101925780631bc5925c146101a55780632eb2c2d6146101c45780634e1273f4146101d75780635ec3f74e146101f7575f5ffd5b8062fdd58e14610114578063017c87c01461013a57806301ffc9a71461014f5780630e89341c14610172575b5f5ffd5b610127610122366004610fdd565b6102de565b6040519081526020015b60405180910390f35b61014d610148366004611049565b610305565b005b61016261015d3660046110f5565b61042b565b6040519015158152602001610131565b610185610180366004611117565b61047a565b604051610131919061115c565b6101856101a0366004611117565b61050c565b6101276101b336600461116e565b60066020525f908152604090205481565b61014d6101d23660046112cd565b610528565b6101ea6101e5366004611379565b610547565b6040516101319190611474565b610127600181565b61016261020d366004611117565b60056020525f908152604090205460ff1681565b61014d610611565b61014d610237366004611486565b610624565b6003546040516001600160a01b039091168152602001610131565b610185610265366004611117565b6106ef565b61014d6102783660046114d2565b610786565b61016261028b36600461150b565b6001600160a01b039182165f90815260016020908152604080832093909416825291909152205460ff1690565b61014d6102c636600461153c565b610795565b61014d6102d936600461116e565b6107ab565b5f818152602081815260408083206001600160a01b03861684529091529020545b92915050565b61030d6107e8565b5f8383836040516020016103239392919061158f565b60408051601f1981840301815291815281516020928301205f818152600590935291205490915060ff16156103b65760405162461bcd60e51b815260206004820152602e60248201527f4372656469747320616c7265616479206d696e74656420666f7220746869732060448201526d3630b732103a3434b9903cb2b0b960911b60648201526084015b60405180910390fd5b5f818152600560209081526040808320805460ff1916600190811790915581519283019091529181526103ec918b918a90610815565b6104078989600160405180602001604052805f815250610815565b5f88815260046020526040902061041f868883611622565b50505050505050505050565b5f6001600160e01b03198216636cdb3d1360e11b148061045b57506001600160e01b031982166303a24d0760e21b145b806102ff57506301ffc9a760e01b6001600160e01b03198316146102ff565b606060028054610489906115a1565b80601f01602080910402602001604051908101604052809291908181526020018280546104b5906115a1565b80156105005780601f106104d757610100808354040283529160200191610500565b820191905f5260205f20905b8154815290600101906020018083116104e357829003601f168201915b50505050509050919050565b5f818152600460205260409020805460609190610489906115a1565b610533335b86610879565b61054085858585856108f1565b5050505050565b606081518351146105785781518351604051635b05999160e01b8152600481019290925260248201526044016103ad565b5f83516001600160401b0381111561059257610592611187565b6040519080825280602002602001820160405280156105bb578160200160208202803683370190505b5090505f5b8451811015610609576020808202860101516105e4906020808402870101516102de565b8282815181106105f6576105f66116db565b60209081029190910101526001016105c0565b509392505050565b6106196107e8565b6106225f610951565b565b816106303360016102de565b101561067e5760405162461bcd60e51b815260206004820152601e60248201527f496e73756666696369656e74206372656469747320746f20726574697265000060448201526064016103ad565b61068a336001846109a2565b335f90815260066020526040812080548492906106a89084906116ef565b909155505060405133907f3656c05df803165785816a6f961d62e1789a861c8eb4add2e70f5a0e5294be4b906106e39085908590429061170e565b60405180910390a25050565b60046020525f908152604090208054610707906115a1565b80601f0160208091040260200160405190810160405280929190818152602001828054610733906115a1565b801561077e5780601f106107555761010080835404028352916020019161077e565b820191905f5260205f20905b81548152906001019060200180831161076157829003601f168201915b505050505081565b610791338383610a09565b5050565b61079e3361052d565b6105408585858585610ac6565b6107b36107e8565b6001600160a01b0381166107dc57604051631e4fbdf760e01b81525f60048201526024016103ad565b6107e581610951565b50565b6003546001600160a01b031633146106225760405163118cdaa760e01b81523360048201526024016103ad565b6001600160a01b03841661083e57604051632bfa23e760e11b81525f60048201526024016103ad565b604080516001808252602082018690528183019081526060820185905260808201909252906108715f8784848784610b53565b505050505050565b816001600160a01b0316816001600160a01b0316141580156108c057506001600160a01b038082165f9081526001602090815260408083209386168352929052205460ff16155b156107915760405163711bec9160e11b81526001600160a01b038084166004830152821660248201526044016103ad565b6001600160a01b03841661091a57604051632bfa23e760e11b81525f60048201526024016103ad565b6001600160a01b03851661094257604051626a0d4560e21b81525f60048201526024016103ad565b61054085858585856001610b53565b600380546001600160a01b038381166001600160a01b0319831681179093556040519116919082907f8be0079c531659141344cd1fd0a4f28419497f9722a3daafe3b4186f6b6457e0905f90a35050565b6001600160a01b0383166109ca57604051626a0d4560e21b81525f60048201526024016103ad565b604080516001808252602082018590528183019081526060820184905260a082019092525f608082018181529192916105409187918590859083610b53565b6001600160a01b038316610a3257604051631f18c42760e11b81525f60048201526024016103ad565b6001600160a01b038216610a5a5760405162ced3e160e81b81525f60048201526024016103ad565b6001600160a01b038381165f81815260016020908152604080832094871680845294825291829020805460ff191686151590811790915591519182527f17307eab39ab6107e8899845ad3d59bd9653f200f220920489ca2b5937696c31910160405180910390a3505050565b6001600160a01b038416610aef57604051632bfa23e760e11b81525f60048201526024016103ad565b6001600160a01b038516610b1757604051626a0d4560e21b81525f60048201526024016103ad565b60408051600180825260208201869052818301908152606082018590526080820190925290610b4a87878484875f610b53565b50505050505050565b610b5f86868686610bab565b6001600160a01b0385161561087157338115610b8857610b83818888888888610dba565b610b4a565b60208581015190850151610ba0838a8a85858a610edb565b505050505050505050565b8051825114610bda5781518151604051635b05999160e01b8152600481019290925260248201526044016103ad565b335f5b8351811015610cdc576020818102858101820151908501909101516001600160a01b03881615610c8e575f828152602081815260408083206001600160a01b038c16845290915290205481811015610c68576040516303dee4c560e01b81526001600160a01b038a1660048201526024810182905260448101839052606481018490526084016103ad565b5f838152602081815260408083206001600160a01b038d16845290915290209082900390555b6001600160a01b03871615610cd2575f828152602081815260408083206001600160a01b038b16845290915281208054839290610ccc9084906116ef565b90915550505b5050600101610bdd565b508251600103610d5c5760208301515f906020840151909150856001600160a01b0316876001600160a01b0316846001600160a01b03167fc3d58168c5ae7397731d063d5bbf3d657854427343f4c083240f7aacaa2d0f628585604051610d4d929190918252602082015260400190565b60405180910390a45050610540565b836001600160a01b0316856001600160a01b0316826001600160a01b03167f4a39dc06d4c0dbc64b70af90fd698a233a518aa5d07e595d983b8c0526c8f7fb8686604051610dab929190611736565b60405180910390a45050505050565b6001600160a01b0384163b156108715760405163bc197c8160e01b81526001600160a01b0385169063bc197c8190610dfe9089908990889088908890600401611763565b6020604051808303815f875af1925050508015610e38575060408051601f3d908101601f19168201909252610e35918101906117c0565b60015b610e9f573d808015610e65576040519150601f19603f3d011682016040523d82523d5f602084013e610e6a565b606091505b5080515f03610e9757604051632bfa23e760e11b81526001600160a01b03861660048201526024016103ad565b805160208201fd5b6001600160e01b0319811663bc197c8160e01b14610b4a57604051632bfa23e760e11b81526001600160a01b03861660048201526024016103ad565b6001600160a01b0384163b156108715760405163f23a6e6160e01b81526001600160a01b0385169063f23a6e6190610f1f90899089908890889088906004016117db565b6020604051808303815f875af1925050508015610f59575060408051601f3d908101601f19168201909252610f56918101906117c0565b60015b610f86573d808015610e65576040519150601f19603f3d011682016040523d82523d5f602084013e610e6a565b6001600160e01b0319811663f23a6e6160e01b14610b4a57604051632bfa23e760e11b81526001600160a01b03861660048201526024016103ad565b80356001600160a01b0381168114610fd8575f5ffd5b919050565b5f5f60408385031215610fee575f5ffd5b610ff783610fc2565b946020939093013593505050565b5f5f83601f840112611015575f5ffd5b5081356001600160401b0381111561102b575f5ffd5b602083019150836020828501011115611042575f5ffd5b9250929050565b5f5f5f5f5f5f5f5f60c0898b031215611060575f5ffd5b61106989610fc2565b9750602089013596506040890135955060608901356001600160401b03811115611091575f5ffd5b61109d8b828c01611005565b90965094505060808901356001600160401b038111156110bb575f5ffd5b6110c78b828c01611005565b999c989b50969995989497949560a00135949350505050565b6001600160e01b0319811681146107e5575f5ffd5b5f60208284031215611105575f5ffd5b8135611110816110e0565b9392505050565b5f60208284031215611127575f5ffd5b5035919050565b5f81518084528060208401602086015e5f602082860101526020601f19601f83011685010191505092915050565b602081525f611110602083018461112e565b5f6020828403121561117e575f5ffd5b61111082610fc2565b634e487b7160e01b5f52604160045260245ffd5b604051601f8201601f191681016001600160401b03811182821017156111c3576111c3611187565b604052919050565b5f6001600160401b038211156111e3576111e3611187565b5060051b60200190565b5f82601f8301126111fc575f5ffd5b813561120f61120a826111cb565b61119b565b8082825260208201915060208360051b860101925085831115611230575f5ffd5b602085015b8381101561124d578035835260209283019201611235565b5095945050505050565b5f5f6001600160401b0384111561127057611270611187565b50601f8301601f19166020016112858161119b565b915050828152838383011115611299575f5ffd5b828260208301375f602084830101529392505050565b5f82601f8301126112be575f5ffd5b61111083833560208501611257565b5f5f5f5f5f60a086880312156112e1575f5ffd5b6112ea86610fc2565b94506112f860208701610fc2565b935060408601356001600160401b03811115611312575f5ffd5b61131e888289016111ed565b93505060608601356001600160401b03811115611339575f5ffd5b611345888289016111ed565b92505060808601356001600160401b03811115611360575f5ffd5b61136c888289016112af565b9150509295509295909350565b5f5f6040838503121561138a575f5ffd5b82356001600160401b0381111561139f575f5ffd5b8301601f810185136113af575f5ffd5b80356113bd61120a826111cb565b8082825260208201915060208360051b8501019250878311156113de575f5ffd5b6020840193505b82841015611407576113f684610fc2565b8252602093840193909101906113e5565b945050505060208301356001600160401b03811115611424575f5ffd5b611430858286016111ed565b9150509250929050565b5f8151808452602084019350602083015f5b8281101561146a57815186526020958601959091019060010161144c565b5093949350505050565b602081525f611110602083018461143a565b5f5f60408385031215611497575f5ffd5b8235915060208301356001600160401b038111156114b3575f5ffd5b8301601f810185136114c3575f5ffd5b61143085823560208401611257565b5f5f604083850312156114e3575f5ffd5b6114ec83610fc2565b915060208301358015158114611500575f5ffd5b809150509250929050565b5f5f6040838503121561151c575f5ffd5b61152583610fc2565b915061153360208401610fc2565b90509250929050565b5f5f5f5f5f60a08688031215611550575f5ffd5b61155986610fc2565b945061156760208701610fc2565b9350604086013592506060860135915060808601356001600160401b03811115611360575f5ffd5b82848237909101908152602001919050565b600181811c908216806115b557607f821691505b6020821081036115d357634e487b7160e01b5f52602260045260245ffd5b50919050565b601f82111561161d57805f5260205f20601f840160051c810160208510156115fe5750805b601f840160051c820191505b81811015610540575f815560010161160a565b505050565b6001600160401b0383111561163957611639611187565b61164d8361164783546115a1565b836115d9565b5f601f84116001811461167e575f85156116675750838201355b5f19600387901b1c1916600186901b178355610540565b5f83815260208120601f198716915b828110156116ad578685013582556020948501946001909201910161168d565b50868210156116c9575f1960f88860031b161c19848701351681555b505060018560011b0183555050505050565b634e487b7160e01b5f52603260045260245ffd5b808201808211156102ff57634e487b7160e01b5f52601160045260245ffd5b838152606060208201525f611726606083018561112e565b9050826040830152949350505050565b604081525f611748604083018561143a565b828103602084015261175a818561143a565b95945050505050565b6001600160a01b0386811682528516602082015260a0604082018190525f9061178e9083018661143a565b82810360608401526117a0818661143a565b905082810360808401526117b4818561112e565b98975050505050505050565b5f602082840312156117d0575f5ffd5b8151611110816110e0565b6001600160a01b03868116825285166020820152604081018490526060810183905260a0608082018190525f906118149083018461112e565b97965050505050505056fea264697066735822122000d86ae72a0ee7e3727a8dad3199df5222ef42f228bed95863a9da6514cca83f64736f6c634300081d0033",
  "linkReferences": {},
  "deployedLinkReferences": {}
}